:100000000C94C0000C94E8000C94E8000C941C12B2
:100010000C941C120C941C120C94E8000C94E80034
:100020000C94E8000C94E8000C94E8000C94E800B0
:100030000C94E8000C94E8000C94E8000C94E800A0
:100040000C94B7100C94E8000C9485100C945F107D
:100050000C94E8000C94E8000C94E8000C94E80080
:100060000C9401110C94E800546F6F4465657000A6
:100070004E6F74537570706F72746564004E6F4D7F
:10008000656D6F727900496E76616C6964496E7056
:10009000757400496E636F6D706C657465496E7040
:1000A000757400456D707479496E707574004F6B8E
:1000B000000000803FCDCCCC3D6F12833A95BFD677
:1000C000337D1D9026B3CE010C0000000800020114
:1000D00000000304070000000000000000AE00A3C1
:1000E00000930086007D007000680064657365728F
:1000F00069616C697A654A736F6E28292066616947
:100100006C65643A2000000020410000C8420040B5
:100110001C4620BCBE4CCA1B0E5AAEC59D74CDCC2D
:10012000CC3D0AD7233C17B7D13877CC2B329595E5
:10013000E6241FB14F0A000000002300260029001A
:1001400000000000240027002A0000000000250015
:1001500028002B0004040404040404040202020224
:10016000020203030303030301020408102040807A
:1001700001020408102001020408102094125118F2
:1001800011241FBECFEFD8E0DEBFCDBF24E0A0E535
:10019000B2E001C01D92A235B207E1F712E0A0E083
:1001A000B1E0EAE3FAE302C005900D92A035B10791
:1001B000D9F710E0CFEBD0E004C02197FE010E94F8
:1001C0000F1BCE3BD107C9F70E9471140C94101D70
:1001D0000C94000008950895AF92BF92CF92DF92E1
:1001E000EF92FF920F931F93CF93DF936C017B01EC
:1001F0008B01040F151FEB015E01AE18BF08C0177D
:10020000D10759F06991D601ED91FC910190F081EF
:10021000E02DC6010995892B79F7C501DF91CF91B2
:100220001F910F91FF90EF90DF90CF90BF90AF9014
:100230000895FC01538D448D252F30E0842F90E0EC
:10024000821B930B541710F0CF96089501970895D1
:10025000FC01918D828D981761F0A28DAE0FBF2F9A
:10026000B11D5D968C91928D9F5F9F73928F90E0F0
:1002700008958FEF9FEF0895FC01918D828D98175F
:1002800031F0828DE80FF11D858D90E008958FEF9C
:100290009FEF0895FC01918D228D892F90E0805C65
:1002A0009F4F821B91098F739927089582E393E0F2
:1002B0000E944A0121E0892B09F420E0822F089551
:1002C00080E090E0892B29F00E94560181110C9466
:1002D00000000895FC01A48DA80FB92FB11DA35AE9
:1002E000BF4F2C91848D90E001968F739927848F56
:1002F000A689B7892C93A089B1898C918370806479
:100300008C93938D848D981306C00288F389E02D19
:1003100080818F7D80830895EF92FF920F931F93CA
:10032000CF93DF93EC0181E0888F9B8D8C8D9813A8
:100330001AC0E889F989808185FF15C09FB7F894B4
:10034000EE89FF896083E889F98980818370806400
:1003500080839FBF81E090E0DF91CF911F910F914B
:10036000FF90EF900895F62E0B8D10E00F5F1F4F5A
:100370000F731127E02E8C8D8E110CC00FB607FC69
:10038000FACFE889F989808185FFF5CFCE010E94F7
:100390006A01F1CFEB8DEC0FFD2FF11DE35AFF4FFA
:1003A000F0829FB7F8940B8FEA89FB898081806285
:1003B000CFCF0F931F93CF93DF938C01D0E0C0E09A
:1003C000F801EC0FFD1F6491662341F082E393E096
:1003D0000E948C01892B11F02196F2CFCE01DF9182
:1003E000CF911F910F910895CF93DF93EC01888DEA
:1003F0008823B9F0AA89BB89E889F9898C9185FDA0
:1004000003C0808186FD0DC00FB607FCF7CF8C912D
:1004100085FFF2CF808185FFEDCFCE010E946A017A
:10042000E9CFDF91CF91089590E0FC01E753FF4FB2
:100430002491FC01E859FE4F3491FC01EC5AFE4F27
:10044000E491EE23C9F0222339F0233001F1A8F41E
:10045000213019F1223029F1F0E0EE0FFF1FE65BA9
:10046000FE4FA591B4918FB7F894EC91611126C01D
:1004700030953E233C938FBF08952730A9F0283054
:10048000C9F0243049F7809180008F7D03C08091AE
:1004900080008F7780938000DFCF84B58F7784BD15
:1004A000DBCF84B58F7DFBCF8091B0008F778093B9
:1004B000B000D2CF8091B0008F7DF9CF3E2BDACF44
:1004C0003FB7F89480912A0390912B03A0912C03BD
:1004D000B0912D0326B5A89B05C02F3F19F00196BA
:1004E000A11DB11D3FBFBA2FA92F982F8827BC018E
:1004F000CD01620F711D811D911D42E0660F771FB6
:10050000881F991F4A95D1F708951F93CF93DF93C2
:10051000C1E0C093BA02882399F1D091B80010913C
:10052000BA008091BC008A7B8093BC0060E082E1CD
:100530000E94140260E083E10E9414021092FF0204
:10054000C09301031092000361E082E10E94140253
:1005500061E083E10E9414028091B9008E7F809354
:10056000B9008091B9008D7F8093B90088E48093B1
:10057000B80085E48093BC001093BA00D093B80013
:10058000DF91CF911F9108952091DB02260F332731
:10059000331F21323105ECF42091FF02FC0190E081
:1005A00080E0243069F082E00895A091DB0221917F
:1005B000AC0145545D4FA40FB52FB11D2C9301968E
:1005C000861798F38091DB02680F6093DB0280E06E
:1005D000089581E0089508958FEF9FEF08958FEFBC
:1005E0009FEF08958091B40290E0919581959109D3
:1005F0000895CF92DF92EF92FF920F931F93CF93C4
:10060000DF937C01CB018A012091B302222389F080
:10061000EB016B01C40ED51ECC15DD0569F06991A7
:10062000D701ED91FC910190F081E02DC701099572
:10063000F3CF642F0E94C402C801DF91CF911F91B4
:100640000F91FF90EF90DF90CF900895CF93DF93BD
:100650001F92CDB7DEB769832091B3022223F9F050
:100660002091B202203258F021E030E0FC013383C7
:10067000228390E080E00F90DF91CF9108958091E8
:10068000B102E82FF0E0EF56FD4F998190838F5F24
:100690008093B1028093B20281E090E0ECCF61E000
:1006A000CE0101960E94C402F7CF20913003309111
:1006B00031032817390771F490912E0380912F038D
:1006C000981741F0E0912E03F0E0EF5AFD4F808142
:1006D00090E008958FEF9FEF0895EF92FF920F93B0
:1006E0001F93CF93DF93DC015C96ED90FC905D97B8
:1006F000E114F10479F481E090E013969C938E93D9
:10070000129790E080E0DF91CF911F910F91FF90C1
:10071000EF9008955196ED91FC91529750968C91DF
:100720005097982F90950FB75E962C915E97122F49
:10073000127021FD6095F8942081112319F1282B66
:100740002083E7012197F1F728E0462F50E0308120
:1007500060FF1AC0382B3083E7012197F1F7BA0107
:1007600075956795215089F7112381F08081892340
:1007700080830FBF5C968D919C910197F1F781E08A
:1007800090E0C1CF2923DCCF3923E5CF9081892B9D
:10079000EFCF20913003309131032817390771F4DE
:1007A00080912F0320912E0390E0805C9F4F821B4D
:1007B000910960E470E00E94C51A089590E080E01D
:1007C0000895209130033091310328173907B9F487
:1007D00090912E0380912F03981789F0E0912E03BA
:1007E000F0E0EF5AFD4F808120912E0330E02F5F23
:1007F0003F4F2F73332720932E0390E008958FEF00
:100800009FEF089580339CF08A3324F08F3524F0D5
:100810008B3724F481E0089581344CF08B35D4F388
:1008200093ED980F81E09230B0F380E008958B3221
:10083000B9F7F0CFFC01808581110AC0A581B6818E
:10084000CD010196968385838C91878381E0808793
:10085000878108959F92AF92BF92CF92DF92EF92DD
:10086000FF920F931F93CF93DF9300D000D01F927E
:10087000CDB7DEB78C010E941A04D82ED801189685
:100880001C92F12CE12C70EFC72EC8010E941A04B3
:10089000F8011086D81609F4C6C0811119C0F801F4
:1008A000E55BFF4F82E090E09183808380E00F90D2
:1008B0000F900F900F900F90DF91CF911F910F919C
:1008C000FF90EF90DF90CF90BF90AF909F900895F2
:1008D0008C3509F09DC0C8010E941A048823F9F2E2
:1008E000EEE4F1E0853709F087C0D80118961C9234
:1008F00064E0962EB12CA12CC8010E941A04882312
:1009000071F281344CF48053803148F0F801E55B9A
:10091000FF4F83E090E0C8CF8F7D8753F5CF54E041
:10092000AA0CBB1C5A95E1F7A82AF80110869A94E4
:100930009110E2CFC501985D8115944020F47501B6
:1009400023E0F222A2CFC5019C5D8115944028F5D9
:10095000B3E0BB22C701982F8827990F990F8A29E6
:100960009B29B0E0A0E01196198280389105A1057D
:10097000B105B8F48A83FE0133968291882309F485
:1009800084CFD8014D915C9111979A012F5F3F4F11
:100990002D933C93DA018C93F0CFC501B0E0A0E039
:1009A000E3CF282F2F7320682A8336E0B695A795CA
:1009B000979587953A95D1F78032910528F4806C08
:1009C0008B83FE013496D9CF282F2F7320682B8379
:1009D00026E0969587952A95E1F78031910528F4D0
:1009E000806E8C83FE013596C8CF80688C83CD8263
:1009F000FE013696C2CF32969081992309F486CFB4
:100A00008913F9CF8181882309F480CFF8011086FA
:100A1000D801ED91FC9111979F012F5F3F4F2D93CE
:100A20003C93808332CFD8010190F081E02DCF013B
:100A300001968D939C93108281E039CF1F93CF93C1
:100A4000DF93EC01162F0E941A04811306C018864A
:100A500081E0DF91CF911F91089580E0FACFCF938D
:100A6000DF93EC01CE010E941A048B303CF48930F4
:100A70004CF4882349F081E08C8310C08D3011F054
:100A80008032C9F71886EECF8C8181110AC081E0CF
:100A900090E0C55BDF4F9983888380E0DF91CF9141
:100AA000089582E090E0F5CFCF93DF93DC01EB0176
:100AB000EC81FD818A819B810896E817F90740F453
:100AC00081E08887F0E0E0E0CF01DF91CF910895E9
:100AD0003897FD83EC833097B9F31296CD91DC9172
:100AE0001397209791F0CF018C1B9D0B23E09595D8
:100AF00087952A95E1F78D831396FC93EE931297D1
:100B00001582148217821682DFCF1196FC93EE9322
:100B1000F3CFCF92DF92EF92FF920F931F93CF9379
:100B2000DF93FC01C48121E02093B302C093500203
:100B30001092B1021092B2028385682B8FEC93E081
:100B40000E942603D091B202D13208F092C00E94D6
:100B500060026B017C018091FF02811165C082E01F
:100B60008093FF0281E0809301038FEF8093FE0268
:100B700010922303D0932203A1E9B2E0E2E0F3E074
:100B800080E0D81385C01092240380912403CC0FF9
:100B9000C82BC093240380910003813009F07CC0EE
:100BA000109200030E9460026B017C01809124037B
:100BB0008093BB008091B6029091B702A091B802D9
:100BC000B091B902892B8A2B8B2B99F00E9460027D
:100BD0000091B6021091B7022091B8023091B9028B
:100BE0006C197D098E099F09061717072807390711
:100BF000E0F18091BC0083FDD9CF85EC8093BC00EF
:100C00000E9460026B017C018091FF02823009F436
:100C100045C08091FE028F3F61F18091FE028032DB
:100C200041F18091FE0225C08091B6029091B702F9
:100C3000A091B802B091B902892B8A2B8B2B09F4B1
:100C40008ACF0E9460020091B6021091B7022091F3
:100C5000B8023091B9026C197D098E099F090617F7
:100C600017072807390708F076CF8091B5020E9450
:100C700085021092B1021092B2021092B302DF917B
:100C8000CF911F910F91FF90EF90DF90CF9008953B
:100C90009D9191938F5F75CF85EEB0CF8091B60215
:100CA0009091B702A091B802B091B902892B8A2B1A
:100CB0008B2B09F4A9CF0E9460020091B60210911B
:100CC000B7022091B8023091B9026C197D098E09E2
:100CD0009F09061717072807390708F095CFC5CFD2
:100CE00090E080E008950F931F93CF938C01C62F5F
:100CF00064600E9489056C2F6B7FC8010E94890582
:100D000083EC90E00197F1F7CF911F910F91089537
:100D10000F931F93CF93DF938C01C62FD62FD07FD5
:100D2000D1606D2F0E9489056D2FC8010E94730646
:100D300080E1C89FE0011124C1606C2FC8010E94AE
:100D400089056C2FC8010E94730681E090E0DF9155
:100D5000CF911F910F910895FB0101900020E9F7B9
:100D60003197AF01461B570BDC01ED91FC910280DE
:100D7000F381E02D09948F929F92AF92BF92EF92F0
:100D8000FF920F931F93CF93DF93CDB7DEB7A19759
:100D90000FB6F894DEBF0FBECDBF7C01FA01CB01C8
:100DA00019A2223008F42AE08E010F5D1F4F822E17
:100DB000912CB12CA12CBF01A50194010E94D91A3C
:100DC000F901CA016A300CF5605DD8016E938D019E
:100DD000232B242B252B79F790E080E0109721F02E
:100DE000BD01C7010E94AC06A1960FB6F894DEBF04
:100DF0000FBECDBFDF91CF911F910F91FF90EF906C
:100E0000BF90AF909F908F900895695CDECF8F92D6
:100E10009F92AF92BF92CF92DF92EF92FF920F9389
:100E20001F93CF93DF937C01EB016C0182E0C80E2E
:100E3000D11C4701E5E08E0E911C10E000E0F601A8
:100E400041916F0150E070E060E02AE0CE010E9425
:100E5000BB065C01E881F9810190F081E02D6EE232
:100E6000CE0109958A0D9B1D080F191FC814D904BE
:100E700031F7F701458150E070E060E02AE0CE01F3
:100E80000E94BB06800F911FDF91CF911F910F91A0
:100E9000FF90EF90DF90CF90BF90AF909F908F909A
:100EA00008950F931F93CF93DF93EC01FB014481CF
:100EB000558160817181E881F9810280F381E02DA3
:100EC00009958C016EEC71E0CE010E94AC06800F9A
:100ED000911FDF91CF911F910F910895CF93DF93D1
:100EE000EC0188819981009711F00E94B11B198251
:100EF00018821D821C821B821A82DF91CF91089575
:100F0000FC0180819181009711F00C94B11B089530
:100F10000F931F93CF93DF93EC0188819981009702
:100F200059F02A813B812617370730F081E0DF91A5
:100F3000CF911F910F9108958B016F5F7F4F0E949A
:100F40003A1C009759F0998388831B830A832C816C
:100F50003D81232B59F7FC011082E8CF80E0E7CFD9
:100F6000EF92FF920F931F93CF93DF93611571055B
:100F700041F480E0DF91CF911F910F91FF90EF90AE
:100F8000089541155105B1F07B01EC010C811D81E3
:100F9000040F151FB8010E948807882351F3288188
:100FA00039818C819D81B701820F931F0E94091D99
:100FB0001D830C8381E0DECFCF93DF93EC01FB0137
:100FC00001900020E9F73197AF01461B570B0E94B3
:100FD000B007811103C0CE010E946E07CE01DF91E0
:100FE000CF910895CF93DF93EC01FB0144815581AC
:100FF000608171810E94B007811103C0CE010E94FF
:101000006E07CE01DF91CF910895CF93DF93EC016E
:10101000EAA1FBA1E80FF91F1282BC016E5F7F4FAE
:1010200061F0FB0101900020E9F73197AF01461B09
:10103000570B888199810E94B0071BA21AA2DF91E9
:10104000CF910895CF93DF93EC018AA19BA19C01DE
:101050002F5F3F4F3BA32AA3FE01E80FF91F6283D6
:101060000296809718F0CE010E9405088CA19DA1E0
:1010700001969DA38CA3DF91CF910895EF92FF92EB
:101080000F931F93CF93DF93EC017B0162E20E94E9
:1010900022088701F80161918F01662391F0EEE447
:1010A000F1E0F280FF2049F0329681816813F9CF98
:1010B0006CE5CE010E9422086F2DCE010E9422080D
:1010C000E9CF62E2CE01DF91CF911F910F91FF90A6
:1010D000EF900C942208CF92DF92EF92FF920F9341
:1010E0001F93CF93DF93EC016A018B017B01E40E28
:1010F000F51E0E151F05A9F0F80121918F018AA197
:101100009BA1AC014F5F5F4F5BA34AA3FE01E80FB9
:10111000F91F22830296809760F3CE010E94050892
:10112000E8CF4CA15DA14C0D5D1D5DA34CA3DF91EB
:10113000CF911F910F91FF90EF90DF90CF90089586
:10114000EF92FF920F931F93CF93DF93CDB7DEB74C
:1011500066970FB6F894DEBF0FBECDBF8C01CB01F2
:10116000FE0177969F014AE0E42EF12CB7010E9420
:10117000C51A805D8293CB010097C1F7A9014E1B70
:101180005F0BBF01C8010E946B0866960FB6F8940A
:10119000DEBF0FBECDBFDF91CF911F910F91FF90AA
:1011A000EF9008958F929F92AF92BF92CF92DF926D
:1011B000EF92FF920F931F93CF93DF93CDB7DEB7DC
:1011C00066970FB6F894DEBF0FBECDBF6C018E01DF
:1011D000095E1F4F78018AE0882E912CA12CB12C3A
:1011E000CB01BA01A50194010E94D91A942F852F31
:1011F000605DF80162938F01A901692F782F411575
:1012000051056105710561F7A7014E1B5F0BBF0119
:10121000C6010E946B0866960FB6F894DEBF0FBE3B
:10122000CDBFDF91CF911F910F91FF90EF90DF9095
:10123000CF90BF90AF909F908F900895FB01019049
:101240000020E9F73197AF01461B570B0C946B0850
:101250002F923F924F925F926F927F928F929F92C6
:10126000AF92BF92CF92DF92EF92FF920F931F93B4
:10127000CF93DF93CDB7DEB766970FB6F894DEBF96
:101280000FBECDBF8C011B01DC0114968C9114970D
:101290008F77863009F470C278F48230B0F08430F1
:1012A00008F051C212964D915C9113976D917C910B
:1012B000C1010E946B0816C28C30B1F160F4883015
:1012C00009F455C28A3009F444C26FE571E0C101E6
:1012D0000E941E0907C2803209F408C28034A9F7AF
:1012E0006BE5C1010E942208F801008111810115FE
:1012F000110509F4F3C1B101C8010E942809D80100
:1013000015968C91882309F4E9C1B8E08B02C001DD
:101310001124080F191F0115110509F4DFC16CE232
:10132000C1010E942208E3CFF801C080D180E28091
:10133000F380A7019601C701B6010E94AF18882368
:1013400031F06FE571E0C1010E941E099FC120E0EC
:1013500030E0A901C701B6010E94AF18882371F0DF
:10136000A7019601C701B6010E94251A9B01AC0195
:10137000C701B6010E94AF18882319F320E030E0BE
:10138000A901C701B6010E94AF1887FF08C06DE22E
:10139000C1010E942208F7FAF094F7F8F09420E8CF
:1013A00036E948E15BE4C701B6010E94C01A87FD37
:1013B00081C064E1A62EB12C00E210E01A8A198ADD
:1013C000F501EA5FFE4F2591359145915491C70192
:1013D000B6010E94C01A87FD13C0F501E25EFE4F00
:1013E0002591359145915491C701B6010E94151977
:1013F0006B017C0129893A89200F311F3A8B298B97
:101400001595079534E0A31AB1088CEFA8168FEF55
:10141000B806B1F655245A9420E030E0A901C7017E
:10142000B6010E94C01A18160CF04BC02CEA35EC1D
:1014300047E257E3C701B6010E94AF1818160CF433
:1014400040C0A52DB4E0AB02C0011124B12CA12CE9
:10145000FC01EF54FF4F3F019C012A5F3E4F4901C1
:101460003FEF531671F1F301EA0DFB1D6591759184
:1014700085919491A70196010E94C01A18169CF4B8
:10148000F401EA0DFB1D2591359145915491C70159
:10149000B6010E9415196B017C0189899A89801B0C
:1014A000910B9A8B898B159507955A9494E0A91AFC
:1014B000B108D6CF00E210E045E0542E1A8A198A0E
:1014C000ABCFC701B6010E94911A4B015C012B0101
:1014D0003C0106E080E492E4AFE0B0E08B8B9C8BB3
:1014E000AD8BBE8B102F01509AE049165104610458
:1014F0007104C8F06B897C898D899E892AE030E06F
:1015000040E050E00E94D91A2B8B3C8B4D8B5E8BB8
:10151000C301B2012AE030E040E050E00E94D91A55
:1015200029013A01DFCFC501B4010E94B4189B0123
:10153000AC01C701B6010E94241A6B017C016B89C2
:101540007C898D899E890E94B4189B01AC01C701DA
:10155000B6010E9415192B013C010E94911A6B01E2
:101560007C010E94B4189B01AC01C301B2010E942E
:10157000241A9B01AC010E94251A0E94911AC60EE2
:10158000D71EE81EF91E8B899C89AD89BE89C816B5
:10159000D906EA06FB06D8F09FEF891A990AA90A2C
:1015A000B90AA989BA89AB2B39F1BAE08B16910433
:1015B000A104B10408F1E989FA893196FA8BE98B23
:1015C000C12CD12C7601812C912C540183949AE06A
:1015D000492E512C612C712CC701B601A301920137
:1015E0000E94D91A672B682B692B51F4111644F409
:1015F00069017A011150F0CFC12CD12C7601E7CFCF
:10160000B501A401C1010E94D208112371F14E015C
:10161000F1E18F0E911C012F54018AE0482E512CCC
:10162000612C712C015068F0C701B601A301920131
:101630000E94D91A605DD4016E934D0169017A014F
:10164000F1CF812F90E0BC0160957095F501E81B0A
:10165000F90B31978EE2808344275527461B570BA1
:101660006A0D7B1DC1010E946B08E989FA89F7FFA9
:101670002AC064E671E0C1010E941E0969897A8965
:10168000719561957109C1010E94A008D1019496DC
:101690008D919C9166960FB6F894DEBF0FBECDBFBC
:1016A000DF91CF911F910F91FF90EF90DF90CF903E
:1016B000BF90AF909F908F907F906F905F904F9072
:1016C0003F902F90089529893A89232BF9F265E6F6
:1016D000C1010E94220869897A89D5CF6DE5C101CF
:1016E0000E942208F10184A195A1D4CF6BE7C1012A
:1016F0000E942208D8010D911C910115110509F1D4
:10170000F80166817781C1010E943E086AE3C10148
:101710000E942208B101C8010E942809D80115962B
:101720008C91882371F0B8E08B02C0011124080F5E
:10173000191F0115110529F06CE2C1010E94220850
:10174000DCCF6DE7CCCF6D917C91C1010E943E084A
:10175000C9CFCD90DD90ED90FC906DE2C1010E946B
:101760002208B701A601C1010E94D208BBCF4D914A
:101770005D916D917C91F7CFF80180819181A2817B
:10178000B38167E671E0892B8A2B8B2B09F0DBCDC7
:101790006CE671E0D8CDEF92FF920F931F93CF9339
:1017A000DF93EC017B018A01BA010E948807811155
:1017B0000BC0CE010E946E07CE01DF91CF911F9129
:1017C0000F91FF90EF9008951D830C83B7018881DE
:1017D00099810E94091DF0CFFB01DC0111961C923A
:1017E0001E9213961C921E92129715961C921E9290
:1017F00014978617970749F060817181611571050B
:1018000021F0448155810C94CB0B0895FC01118289
:10181000108213821282158214826115710551F0B3
:10182000FB0101900020E9F73197AF01461B570BF0
:101830000C94CB0B0895CF92DF92EF92FF920F930F
:101840001F93CF93DF93CDB7DEB7CE5BD1090FB631
:10185000F894DEBF0FBECDBF7C016B016115710531
:10186000F9F0FB0184818F7784508230C8F4608165
:10187000718161157105A1F0C7010E94060CC701B5
:10188000C254DF4F0FB6F894DEBF0FBECDBFDF915D
:10189000CF911F910F91FF90EF90DF90CF9008951F
:1018A0008E0107541F4F6EE571E0C8010E94060CBF
:1018B000CB56DF4F19830883C559D040C954DF4F39
:1018C00019821882C75BD04084E2FE01EB56FF4FBD
:1018D000DE01AF58BF4F01900D928A95E1F784E287
:1018E000FE01EF58FF4FDE01A35BBF4F01900D9249
:1018F0008A95E1F784E2FE01E35BFF4FDE019996F2
:1019000001900D928A95E1F784E2FE01B996DE011D
:10191000119601900D928A95E1F71EA21DA2CE01AB
:1019200089960E940508CE01835B9F4F0E9405089F
:10193000C114D10489F1BE016F5F7F4FC6010E94BF
:101940002809CE0101960E940508CE018F589F4FAD
:101950000E940508CE018B569F4F0E940508F80192
:1019600080819181F70191838083F8018281938145
:10197000F70193838283F80184819581F701958330
:101980008483F801118210821382128215821482DC
:10199000C8010E94800773CF6FE571E0CE01019608
:1019A0000E941E09CECFCF92DF92EF92FF920F934B
:1019B0001F93CF93DF9300D0CDB7DEB78C016B01BF
:1019C0007A016EE571E00E94060CB6018DE194E0AB
:1019D0000E9451072FB7F894809126039091270316
:1019E000A0912803B09129032FBF6701FF0CEE08D7
:1019F000FF08C80ED91EEA1EFB1E2FB7F89480916F
:101A0000260390912703A0912803B09129032FBFAB
:101A10008C159D05AE05BF05A8F48DE194E00E94EC
:101A2000C903892B51F38DE194E00E94E10389837E
:101A30001A8241E050E0BE016F5F7F4FC8010E94F3
:101A4000B007EBCFB80182E393E00E945107C801D1
:101A50000F900F90DF91CF911F910F91FF90EF901A
:101A6000DF90CF90089585ED8093BC008091B60201
:101A70009091B702A091B802B091B9020796A11D4A
:101A8000B11D23E0B695A795979587952A95D1F72F
:101A90002091BC0024FD03C01092FF0208954091E4
:101AA000B6025091B7026091B8027091B902452B0D
:101AB000462B472B69F30097A105B10541F025E3BB
:101AC0002A95F1F700000197A109B109E1CF8091B2
:101AD000B5020C9485020F931F93CF93DF938B0174
:101AE000EC012097E1F06E817F8160177107B9F0FA
:101AF0000115110541F06115710529F0C8010E9419
:101B0000001D892B61F08D81882339F028E0820245
:101B1000C0011124C80FD91FE4CFD0E0C0E0CE012E
:101B2000DF91CF911F910F9108954F925F926F9225
:101B30007F92BF92CF92DF92EF92FF920F931F930B
:101B4000CF93DF93EC018B01E42E0E942F05F82E3A
:101B5000811110C0F12C8F2DDF91CF911F910F912A
:101B6000FF90EF90DF90CF90BF907F906F905F904D
:101B70004F900895CE010E941A04873209F40DC1D6
:101B80000CF5823209F409C1CE010E941A04B82E64
:101B90006E01FBE0CF0ED11CE12C36018B2D0E9493
:101BA0000204882309F40EC12FE3E21609F40AC1E6
:101BB0001886E394D601BD926D01CE010E941A04ED
:101BC000B82EECCF8B3509F44AC08B37E9F6F80113
:101BD00084818078806284831182108213821282D1
:101BE000EE2009F44EC01886CE010E942F058823EE
:101BF00009F4B0CF6DE7CE010E941E058111ABCF75
:101C0000EA94888199819B838A83CE010E941A0479
:101C1000873209F476C0823209F473C0CE010E9483
:101C20001A04D82E0E940204882309F465C018867D
:101C3000E881F981CF01019699838883D082CE0112
:101C40000E941A04D82E0E9402048111F0CFE8816C
:101C5000F981CF01019699838883108258C0D801F9
:101C600014968C9114978078806414968C931497B2
:101C700011961C921E9213961C921E921297E110BE
:101C800007C0C55BDF4F86E090E09983888362CF11
:101C90001886CE010E942F05882309F45BCF6DE5DD
:101CA000CE010E941E05811156CFEA9469857A857E
:101CB000C8010E945405009729F4C55BDF4F84E0FA
:101CC00090E0E3CF4E2DBC01CE010E94950D8823FC
:101CD00009F440CFCE010E942F05882309F43ACFA2
:101CE0006DE5CE010E941E05811135CF6CE2CE015B
:101CF0000E941E058111DACFC55BDF4F83E090E0C3
:101D0000C4CFCE010E942A04882309F423CFCE0138
:101D10000E942F05882309F41DCF6AE3CE010E949B
:101D20001E05882349F3CA80DB80B601D8018D9156
:101D30009C910E946B0DBC01892B79F469857A8591
:101D4000C8010E945405FC01892B09F4B6CF848197
:101D50008F778483D782C682BF014E2DCE010E9429
:101D6000950D882309F4F6CECE010E942F05882315
:101D700009F4F0CE6DE7CE010E941E058111EBCE75
:101D80006CE2CE010E941E05882309F4B5CFCE0176
:101D90000E942F05811135CFDDCE888199819B83EB
:101DA0008A83CE010E942A04F82E882309F4D2CE19
:101DB0002A813B81F8018481807884608483318327
:101DC0002083C9CEFE01EE0DF11D13868B8584376D
:101DD000B1F4F801848180788660848381E090E0AA
:101DE000A0E0B0E080839183A283B383F4E0EF1698
:101DF00009F4B1CEC55BDF4F82E090E046CF863676
:101E000079F4D80114968C91149780788660149692
:101E10008C93F8011082118212821382F5E0E7CFD1
:101E20008E3621F424E0E212E5CF95CE8B32E1F13B
:101E3000F3018D32D9F5FE013C96BF2C808190EDE7
:101E4000980F9A3018F08E3209F056CF6F0120E0CB
:101E500030E0A901F6018191A0EDEA2EE80E99E0AB
:101E60009E1530F12A39A9E93A074A07A9E15A072C
:101E7000A8F5AAE0B0E00E94D3199B01AC018E2D19
:101E800090E0B0E0A0E02C013D01409450946094BB
:101E90007094421653066406750600F1280F391F28
:101EA0004A1F5B1F6F01D6CFFE013C96B12CC6CFF7
:101EB000811114C0F80184818078BB2041F08A60D0
:101EC00084832083318342835383FB2C44CE8860F8
:101ED000848320833183428353833DCEE12CEAE027
:101EE0004E2E512C612C712C21153105B0E84B0779
:101EF000510540F0CA01B901A30192010E94D91A0B
:101F0000E394F2CFF601D6018D916D0190ED980F1B
:101F10009A3010F4E394F6CF8E3211F56F01BFEFD3
:101F2000CB1ADB0AF6018FEFC81AD80A808170ED50
:101F3000772E780E99E0971598F02C3CACEC3A0788
:101F4000ACE04A07510570F7AAE0B0E00E94D3194F
:101F50009B01AC01270D311D411D511DEA94E2CFBB
:101F600080818F7D853409F08FC081818D32E1F5CC
:101F700032967F2CDF0190E080E0CE2C0E2C000CFE
:101F8000DD086AE0562EFD016D9060ED660D6A3049
:101F900008F046C0589EB001599E700D1124862D40
:101FA000660C990BC097860F971FBC016C0D7D1DA9
:101FB0006732710544F3F80184817720E1F040E055
:101FC00050E060E070E8B11003C040E050E0BA01BA
:101FD00080788C60D80114968C93F80140835183EB
:101FE00062837383F72CB7CD8B3219F03196712C45
:101FF000C1CF3296FCCF40E050E060E87FEFB110F7
:1020000004C040E050E060E87FE780788C60D80151
:1020100014968C93F80140835183628373839BCD24
:10202000772019F09195819591096081611164CEB5
:10203000EC01CE0DD11DE7FCDA95CA01B9010E9471
:10204000B4181C161D061CF5E12CC0FF0CC024E0C2
:10205000E29EF0011124EA5FFE4F259135914591F2
:1020600054910E941519D595C795E394209769F767
:10207000B1109058F801248120782C60248360836B
:1020800071838283938367CD90E080E0CECFD1953A
:10209000C195D109E12C209759F3C0FF0CC0B4E0E1
:1020A000EB9EF0011124E25EFE4F259135914591A2
:1020B00054910E941519D595C795E394ECCF1F92C2
:1020C0000F920FB60F9211242F933F934F935F936C
:1020D0006F937F938F939F93AF93BF93EF93FF93F0
:1020E00082E393E00E946A01FF91EF91BF91AF916B
:1020F0009F918F917F916F915F914F913F912F9120
:102100000F900FBE0F901F9018951F920F920FB651
:102110000F9211242F938F939F93EF93FF93E0914E
:102120004203F09143038081E0914803F091490319
:1021300082FD1BC0908180914B038F5F8F73209134
:102140004C03821741F0E0914B03F0E0EE5CFC4F52
:10215000958F80934B03FF91EF919F918F912F91DA
:102160000F900FBE0F901F9018958081F4CF1F9293
:102170000F920FB60F9211242F933F938F939F933B
:10218000AF93BF938091260390912703A0912803DA
:10219000B09129033091250323E0230F2D3758F503
:1021A0000196A11DB11D20932503809326039093D2
:1021B0002703A0932803B093290380912A039091C9
:1021C0002B03A0912C03B0912D030196A11DB11DED
:1021D00080932A0390932B03A0932C03B0932D0399
:1021E000BF91AF919F918F913F912F910F900FBE13
:1021F0000F901F90189526E8230F0296A11DB11D80
:10220000D2CF1F920F920FB60F9211242F933F93AC
:102210004F935F936F937F938F939F93AF93BF93EE
:10222000EF93FF938091B900887F803609F44AC00C
:10223000F0F5883209F4A5C018F5803109F499C089
:10224000B8F4882309F4F5C0883009F492C0FF91EE
:10225000EF91BF91AF919F918F917F916F915F911E
:102260004F913F912F910F900FBE0F901F90189597
:10227000883109F486C0803251F78093FE0214C081
:10228000803409F49BC040F48033B9F38833F9F605
:102290008093FE0285ECAEC0803509F483C088359A
:1022A00009F494C0883499F60E94330DD0CF883950
:1022B00009F48AC038F5883729F050F4883611F0CF
:1022C000803729F683E08093FF021092FD0255C00B
:1022D000883809F479C0803919F0803809F0B7CF0F
:1022E0008091FD02803208F06FC0E091FD0281E034
:1022F0008E0F8093FD028091BB00F0E0E352FD4F12
:1023000080833BC0803B39F0D0F4803A09F477C039
:10231000883A09F09CCF84E08093FF021092DC029F
:102320001092DB02F0E0E0E009958091DB02811180
:102330000FC081E08093DB021092BB0209C0803C99
:1023400009F4A8CF883C09F4A5CF883B09F07FCFDA
:10235000E091DC0281E08E0F8093DC02F0E0E55436
:10236000FD4F80818093BB009091DC028091DB0265
:1023700029C0809124038093BB0085EC8093BC002E
:1023800066CF9091230380912203981758F5E0912E
:10239000230381E08E0F80932303F0E0EE5FFC4F78
:1023A0008081E9CFE091230381E08E0F80932303A6
:1023B0008091BB00F0E0EE5FFC4F8083909123039F
:1023C000809122039817C8F285E8D8CFE0912303C3
:1023D00081E08E0F809323038091BB00F0E0EE5FDD
:1023E000FC4F80838091010381115ECF81E0809357
:1023F000000384EA8093BC001092FF0228CF85EC92
:102400008093BC001092FF028091FD02803230F474
:10241000E091FD02F0E0E352FD4F10826091FD0279
:1024200070E08DED92E0F0E0E0E009951092FD02A1
:102430000ECF1092FE0238CF1F920F920FB60F925E
:1024400011242F933F934F935F936F937F938F93B9
:102450009F93AF93BF93EF93FF93E0913003F0917D
:102460003103309749F0A685B7858585968D91FF14
:1024700014C09C918923A1F4FF91EF91BF91AF917A
:102480009F918F917F916F915F914F913F912F918C
:102490000F900FBE0F901F9018959C91892361F7A4
:1024A000A389B4899C918589809589238C93868999
:1024B00097890197F1F7608D718DA685B785558550
:1024C00038E020E0CB010197F1F7822F90E095955D
:1024D0008795282F4C91452309F02068315091F7BA
:1024E000868D81FD209580912F0390E001968F735A
:1024F000992730912E03381799F0A0912F03B0E05F
:10250000AF5ABD4F2C9380932F03828D938D0197EB
:10251000F1F7A389B4898C919589892B8C93ACCFE1
:10252000868D8160868FF1CFEF92FF920F931F937C
:10253000CF93DF93CDB7DEB767970FB6F894DEBFC2
:102540000FBECDBF109235031092340348EE53E016
:1025500060E070E040933603509337036093380394
:10256000709339038AE091E09093330380933203B0
:1025700085EC90E090933F0380933E0384EC90E0E1
:10258000909341038093400380EC90E09093430349
:102590008093420381EC90E0909345038093440341
:1025A00082EC90E0909347038093460386EC90E0A2
:1025B000909349038093480310924B0310924C036D
:1025C00010924D0310924E031092D2031092D10339
:1025D0004093D3035093D4036093D5037093D603F1
:1025E0008CE191E09093D0038093CF038CE491E051
:1025F0009093DC038093DB031092DD031092DE03E3
:102600001092DF031092E0039093E2038093E103C2
:102610001092E3031092E4031092E5031092E60394
:102620009093E8038093E7031092E9031092EA0382
:102630001092EB031092EC039093EE038093ED0362
:102640001092EF031092F0031092F1031092F20334
:102650009093F4038093F3031092F5031092F60322
:102660001092F7031092F803909349048093480462
:1026700010924A0410924B0410924C0410924D0494
:1026800010923F0410923E0480E491E090933D0448
:1026900080933C0487E28093400480E1809344046B
:1026A00082E0809345041092460488E080934704BA
:1026B0001092200410921F0440932104509322048E
:1026C00060932304709324048EE291E090931E049F
:1026D00080931D0410923404109233041092360437
:1026E00010923504109238041092370410923A0474
:1026F0001092390460913B046E7F6D7F60933B04C0
:102700006695617081E0682783E00E9414024BE6C1
:1027100051E0FA01649187E591E0FC0124912223C4
:1027200099F030E0220F331FF901E05CFE4FA591D4
:10273000B491F901E65BFE4F259134912FB7F894DF
:102740003C91632B6C932FBFFA01449140932D046D
:10275000FC018491E82FF0E0EE0FFF1FE65BFE4FD7
:102760008591949190932F0480932E045AE6E52E40
:1027700051E0F52EF701249106E511E0F80184916E
:102780008823C9F090E0880F991FFC01E05CFE4FA0
:10279000A591B491FC01E65BFE4F459154913FB782
:1027A000F8949C91822F809598239C93FA019081B4
:1027B000892380833FBF80913B0481FD04C061E099
:1027C00082E00E94140282E080932904F701E490E1
:1027D000E0922A04F8010491E02FF0E0EE0FFF1FD1
:1027E000EA5CFE4F8591949190932C0480932B0486
:1027F00062E771E087E194E00E94060C6EE771E009
:1028000081E194E00E94060C67E871E08BE094E0BF
:102810000E94060C6EE871E085E094E00E94060CD0
:102820006FE971E08E010F5F1F4FC8010E94060C17
:10283000B801CE0142960E94EC0B6BE074E0CE0131
:1028400042960E94F20764EA71E00E94DC0760EBA6
:1028500071E00E94DC0765E074E00E94F2076EEC14
:1028600071E00E94DC0766EB71E00E94DC07BC01AE
:102870008FEF93E00E94EC0BCE0142960E948007FE
:10288000C8010E9480078091030490910404109273
:10289000FA031092F9031092FC031092FB031092BA
:1028A000FE031092FD034AE0B8010E948518F8016A
:1028B00001900020E9F73197AF01401B510BB8019F
:1028C00089EF93E00E94CB0B67960FB6F894DEBFBA
:1028D0000FBECDBFDF91CF911F910F91FF90EF9071
:1028E0000895CF93DF93CDB7DEB7C154D1400FB673
:1028F000F894DEBF0FBECDBF789484B5826084BDEE
:1029000084B5816084BD85B5826085BD85B58160F3
:1029100085BD80916E00816080936E001092810071
:10292000809181008260809381008091810081602C
:1029300080938100809180008160809380008091ED
:10294000B10084608093B1008091B0008160809379
:10295000B00080917A00846080937A0080917A0040
:10296000826080937A0080917A00816080937A00FF
:1029700080917A00806880937A001092C100E09183
:102980004203F091430382E08083E0913E03F091A3
:102990003F031082E0914003F09141038FEC80836C
:1029A00010924A03E0914603F091470386E080834A
:1029B000E0914403F0914503808180618083E09140
:1029C0004403F0914503808188608083E091440353
:1029D000F0914503808180688083E0914403F09109
:1029E000450380818F7D80831092380410923704D4
:1029F000109236041092350410923404109233046D
:102A00008DE991E090933A048093390490912904E0
:102A1000963108F047C02DEB30E03093340420931A
:102A200033042BE931E030933604209335042CE253
:102A300031E030933804209337042091680084E01B
:102A4000983048F031E09E3008F430E081E001C079
:102A5000880F3A95EAF7822B809368002DE630E0E4
:102A6000983050F02BE630E09E3030F02CE630E02D
:102A7000963110F030E020E03093310420933004A0
:102A8000292F30E0983008F063C281E001C0880F40
:102A90009A95EAF7809332048091390490913A0430
:102AA0000197F1F78091370490913804892B49F10F
:102AB000E0913003F091310384E0ED31F80709F142
:102AC000309739F0A389B4899C91858980958923B1
:102AD0008C9380913B048E7F80933B0410922F0354
:102AE00010922E038DE194E0909331038093300394
:102AF000E0913004F0913104808190913204892B6F
:102B0000808361ED71E0CE0189529F4F0E94060CD7
:102B100040ED57E0BE0169527F4F8E010F5F1F4F9E
:102B2000C8010E94D30CC8010E948007CE018952BF
:102B30009F4F0E94800768ED71E0CE0189529F4F40
:102B40000E94060C40ED57E0BE0169527F4FC8015C
:102B50000E94D30CC8010E948007CE0189529F4F6A
:102B60000E94800764EE71E0C8010E94060C67E1D4
:102B700074E0C8010E94F20768E072E00E94DC077E
:102B800061E174E00E94F2076AE072E00E94DC07F3
:102B9000BC01CE018C5D9E4F0E94EC0BC8010E94CF
:102BA0008007BE016C5D7E4FCE0189529F4F0E940F
:102BB000EC0B40E757E1BE0169527F4FC8010E940C
:102BC000D30CC8010E948007CE0189529F4F0E94FA
:102BD00080076FEE71E0CE0189529F4F0E94060C74
:102BE00040ED57E0BE0169527F4FC8010E94D30CEF
:102BF000C8010E948007CE0189529F4F0E94800722
:102C0000CE018C5D9E4F0E9480076E019FE0C90E31
:102C1000D11C20E0622E20E0722EDA82C982DC8292
:102C2000CB8287ED90E08C0F9D1F9E838D839887CC
:102C30008F8319868E8580788E876EE571E0CE0150
:102C4000845C9E4F0E94060C68EF71E0CE018952B1
:102C50009F4F0E94060C65E074E0CE0189529F4FA1
:102C60000E94F2076CE072E00E94DC07BC01CE011A
:102C7000865D9E4F0E94EC0BCE0189529F4F0E94B1
:102C80008007BE01665D7E4FCE018C5D9E4F0E9427
:102C9000EC0B40ED57E0BE016C5D7E4FCE018952DA
:102CA0009F4F0E94D30CCE0189529F4F0E948007F4
:102CB000CE018C5D9E4F0E948007CE01865D9E4FA7
:102CC0000E94800761E172E0CE01865D9E4F0E9406
:102CD000060C69EF73E0CE01865D9E4F0E94F207FD
:102CE000BC01CE018C5D9E4F0E94EC0B40ED57E085
:102CF000BE016C5D7E4FCE0189529F4F0E94D30C66
:102D0000CE0189529F4F0E948007CE018C5D9E4F5D
:102D10000E948007CE01865D9E4F0E9480076FEF64
:102D200073E0CE0189529F4F0E94EC0B40E757E1C0
:102D3000BE0169527F4FCE018C5D9E4F0E94D30C25
:102D4000CE0189529F4F0E948007C45CDE4F88816C
:102D50009981CC53D140009709F409C1CC5DDE4F75
:102D600068817981C452D1406115710509F4FDC0B3
:102D7000C25CDE4F48815981CE53D140C85DDE4FE1
:102D800028813981C852D1404217530708F4EDC059
:102D90000E94091DC85DDE4F88819981C852D140CB
:102DA000C05CDE4F99838883C054D140C85DDE4F3C
:102DB00019821882C852D140CE018C5D9E4F0E946C
:102DC000800782E090E00E94151B7C016EE571E0B7
:102DD000CE018A5C9E4F0E94060CC45CDE4F888147
:102DE0009981CC53D140FC01C05CDE4F6881798170
:102DF000C054D140680F791F50E040E030E020E03F
:102E00006E177F07B1F0009709F445C15080ABE71A
:102E10005A123CC1D701A40FB51F5C924F5F5F4FA0
:102E200021E030E0009709F4D3C0A081AD3709F06C
:102E3000CFC09701E114F10411F42EE531E089814E
:102E40009A819C838B838F8198859E838D8319863D
:102E50008E8580788E874701C952DF4F888299829C
:102E6000AA82BB82C75DD040C552DF4F1882CB5DBE
:102E7000D040C452DF4F39832883CC5DD040C1524B
:102E8000DF4F1882CF5DD040C052DF4F19830883D7
:102E9000C05ED040CE5DDE4F19821882C252D14052
:102EA0004AE0BE01665F7F4FCE0189529F4F0E946C
:102EB000950DCE5DDE4FE880F980C252D140E1141D
:102EC000F10489F4C252DF4F9881CE5DD0408E85E7
:102ED000992309F484C0982F9F779C3009F07AC019
:102EE00093E0E92EF12C8BEE90E00E94D901F701DE
:102EF000EE0FFF1FE352FF4F859194910E94D9017D
:102F00006EEC71E082E393E00E94AC066DE172E04A
:102F100082E393E00E94AC066EEC71E082E393E002
:102F20000E94AC06CE018A5C9E4F0E948007CE01B3
:102F3000845C9E4F0E9480076114710409F46DCE79
:102F40000E945601882309F464CE0E94000061CEDD
:102F50009E3040F42850310981E001C0880F2A9545
:102F6000EAF798CD2E503109F7CF0E94B11BCC5D06
:102F7000DE4F88819981C452D140C45CDE4F998371
:102F80008883CC53D140CA5DDE4F88819981C65277
:102F9000D140C25CDE4F99838883CE53D140C85D57
:102FA000DE4F88819981C852D140C05CDE4F998341
:102FB0008883C054D140CC5DDE4F19821882C45240
:102FC000D140CA5DDE4F19821882C652D140EECE82
:102FD000319616CF982F9D77983009F481CF85FDD3
:102FE00003C090E080E006C06FE272E08A859B85B6
:102FF0000E946B0DBC01CE01805D9E4F0E941B0C98
:103000008E8585FF40C06CE372E08A859B850E94B7
:103010006B0DBC01CE01865D9E4F0E941B0CBE0154
:10302000605D7E4F82E393E00E945107BE01665DC2
:103030007E4F82E393E00E94510763E472E0CE0189
:103040008C5D9E4F0E94060C40ED57E0BE016C5D0A
:103050007E4FCE0189529F4F0E94D30CCE018952E0
:103060009F4F0E948007CE018C5D9E4F0E9480077B
:10307000CE01865D9E4F0E948007CE01805D9E4FEF
:103080000E9480074FCF90E080E0C3CF211531052B
:1030900009F0C0CECACE2115310509F499CF512CC3
:1030A000B9CE89EF93E00E9480078FEF93E00E94F2
:1030B000800785E094E00E9480078BE094E00E9406
:1030C000800781E194E00E94800787E194E00E94FC
:1030D00080078EE291E090931E0480931D048091FE
:1030E0003003909131038D51944071F4E09130049C
:1030F000F0913104908180913204809589238083FE
:1031000010923103109230030895BB27FB0155271D
:10311000AA27880F991FAA1FA41710F0A41B839534
:103120005051B9F7A05DAA3308F0A95DA1930097AB
:1031300079F7B111B1931192CB010C949F18DC0176
:10314000FC01672F71917723E1F7329704C07C91DE
:103150006D9370836291AE17BF07C8F308950E9404
:10316000F11808F481E00895E89409C097FB3EF453
:1031700090958095709561957F4F8F4F9F4F9923C4
:10318000A9F0F92F96E9BB279395F6958795779542
:103190006795B795F111F8CFFAF4BB0F11F460FF02
:1031A0001BC06F5F7F4F8F4F9F4F16C0882311F05A
:1031B00096E911C0772321F09EE8872F762F05C06E
:1031C000662371F096E8862F70E060E02AF09A9509
:1031D000660F771F881FDAF7880F9695879597F9FE
:1031E0000895990F0008550FAA0BE0E8FEEF161698
:1031F0001706E807F907C0F012161306E407F507EB
:1032000098F0621B730B840B950B39F40A2661F05E
:10321000232B242B252B21F408950A2609F4A14001
:10322000A6958FEF811D811D08950E9428190C9489
:1032300099190E948B1938F00E94921920F0952359
:1032400011F00C9482190C94881911240C94CD1946
:103250000E94AA1970F3959FC1F3950F50E0551F76
:10326000629FF001729FBB27F00DB11D639FAA27DB
:10327000F00DB11DAA1F649F6627B00DA11D661F2A
:10328000829F2227B00DA11D621F739FB00DA11D4B
:10329000621F839FA00D611D221F749F3327A00D05
:1032A000611D231F849F600D211D822F762F6A2FA1
:1032B00011249F5750409AF0F1F088234AF0EE0F06
:1032C000FF1FBB1F661F771F881F91505040A9F733
:1032D0009E3F510580F00C9482190C94CD195F3FEC
:1032E000E4F3983ED4F3869577956795B795F7956F
:1032F000E7959F5FC1F7FE2B880F911D96958795E7
:1033000097F9089597F99F6780E870E060E0089565
:103310009FEF80EC089500240A94161617061806ED
:103320000906089500240A941216130614060506C9
:103330000895092E0394000C11F4882352F0BB0F5A
:1033400040F4BF2B11F460FF04C06F5F7F4F8F4FBD
:103350009F4F089557FD9058440F551F59F05F3FF8
:1033600071F04795880F97FB991F61F09F3F79F0A7
:1033700087950895121613061406551FF2CF469529
:10338000F1DF08C0161617061806991FF1CF8695AB
:103390007105610508940895E894BB27662777278F
:1033A000CB0197F908950E94151AA59F900DB49F1F
:1033B000900DA49F800D911D112408952F923F928E
:1033C0004F925F926F927F928F929F92AF92BF9235
:1033D000CF92DF92EF92FF920F931F93CF93DF93E1
:1033E000CDB7DEB7CA1BDB0B0FB6F894DEBF0FBE3E
:1033F000CDBF09942A88398848885F846E847D848B
:103400008C849B84AA84B984C884DF80EE80FD808C
:103410000C811B81AA81B981CE0FD11D0FB6F89402
:10342000DEBF0FBECDBFED010895A29FB001B39FD7
:10343000C001A39F700D811D1124911DB29F700DBD
:10344000811D1124911D08955058BB27AA270E9461
:103450003C1A0C9499190E948B1938F00E94921909
:1034600020F039F49F3F19F426F40C9488190EF4D7
:10347000E095E7FB0C948219E92F0E94AA1958F3F2
:10348000BA17620773078407950720F079F4A6F549
:103490000C94CC190EF4E0950B2EBA2FA02D0B0135
:1034A000B90190010C01CA01A0011124FF27591B89
:1034B00099F0593F50F4503E68F11A16F040A22F8F
:1034C000232F342F4427585FF3CF46953795279500
:1034D000A795F0405395C9F77EF41F16BA0B620BFF
:1034E000730B840BBAF09150A1F0FF0FBB1F661F46
:1034F000771F881FC2F70EC0BA0F621F731F841F89
:1035000048F4879577956795B795F7959E3F08F0AE
:10351000B0CF9395880F08F09927EE0F9795879570
:1035200008950E94B21988F09F5798F0B92F9927F3
:10353000B751B0F0E1F0660F771F881F991F1AF09E
:10354000BA95C9F714C0B13091F00E94CC19B1E01E
:1035500008950C94CC19672F782F8827B85F39F01D
:10356000B93FCCF3869577956795B395D9F73EF437
:1035700090958095709561957F4F8F4F9F4F0895DF
:103580000E94F11808F48FEF089597FB072E16F4A8
:10359000009407D077FD09D00E94FB1A07FC05D0E4
:1035A0003EF4909581959F4F0895709561957F4F5A
:1035B0000895A1E21A2EAA1BBB1BFD010DC0AA1F74
:1035C000BB1FEE1FFF1FA217B307E407F50720F08C
:1035D000A21BB30BE40BF50B661F771F881F991F07
:1035E0001A9469F760957095809590959B01AC0150
:1035F000BD01CF010895AA1BBB1B51E107C0AA1F43
:10360000BB1FA617B70710F0A61BB70B881F991F83
:103610005A95A9F780959095BC01CD010895EE0FBC
:10362000FF1F0590F491E02D09940F931F93CF9302
:10363000DF938230910510F482E090E0E091500435
:10364000F091510430E020E0B0E0A0E0309799F430
:103650002115310509F44AC0281B390B24303105E6
:10366000D8F58A819B816115710589F1FB019383EE
:103670008283FE0111C0408151810281138148176C
:103680005907E0F04817590799F4109761F012961E
:103690000C93129713961C933296CF01DF91CF9122
:1036A0001F910F9108950093500410935104F4CF8B
:1036B0002115310551F04217530738F0A901DB01FC
:1036C0009A01BD01DF01F801C1CFEF01F9CF90935D
:1036D000510480935004CDCFFE01E20FF31F81937C
:1036E00091932250310939832883D7CF20914E04FA
:1036F00030914F04232B41F42091020130910301BA
:1037000030934F0420934E04209100013091010129
:103710002115310541F42DB73EB740910401509178
:103720000501241B350BE0914E04F0914F04E21784
:10373000F307A0F42E1B3F0B2817390778F0AC01D4
:103740004E5F5F4F2417350748F04E0F5F1F5093B1
:103750004F0440934E04819391939FCFF0E0E0E0BB
:103760009CCFCF93DF930097E9F0FC01329713824F
:103770001282A0915004B0915104ED0130E020E09C
:103780001097A1F420813181820F931F20914E0464
:1037900030914F042817390709F061C0F0934F04A6
:1037A000E0934E04DF91CF910895EA01CE17DF0731
:1037B000E8F54A815B819E0141155105B1F7E901A8
:1037C000FB83EA8349915991C40FD51FEC17FD077C
:1037D00061F4808191810296840F951FE90199839C
:1037E0008883828193819B838A83F0E0E0E0129654
:1037F0008D919C9113970097B9F52D913C9111975C
:10380000CD010296820F931F20914E0430914F04F8
:103810002817390739F6309751F510925104109254
:103820005004B0934F04A0934E04BCCFD383C28303
:1038300040815181840F951FC817D90761F44E5FED
:103840005F4F88819981480F591F518340838A8136
:103850009B81938382832115310509F0B0CFF093CA
:103860005104E09350049ECFFD01DC01C0CF1382D0
:103870001282D7CFB0E0A0E0E0E4FCE10C94E019C4
:103880008C01009751F4CB010E94151B8C01C801DB
:10389000CDB7DEB7E0E10C94FC19FC01E60FF71F91
:1038A0009C0122503109E217F30708F49DC0D901A9
:1038B000CD91DC911197C617D70798F0C530D10587
:1038C00030F3CE0104978617970708F3C61BD70B72
:1038D0002297C193D1936D937C93CF010E94B11B2A
:1038E000D6CF5B01AC1ABD0A4C018C0E9D1EA09177
:1038F0005004B0915104512C412CF12CE12C109723
:1039000031F580914E0490914F048815990509F086
:103910005CC04616570608F058C08091000190918F
:103920000101009741F48DB79EB740910401509179
:103930000501841B950BE817F90708F055C0F093B3
:103940004F04E0934E04F90171836083A0CF8D9101
:103950009C91119712966C90129713967C901397E6
:10396000A815B90559F56C0142E0C40ED11CCA1462
:10397000DB0420F1AC014A195B09DA0112961597B4
:1039800080F06282738251834083D9016D937C936E
:10399000E114F10471F0D7011396FC93EE931297A2
:1039A00076CF22968C0F9D1FF90191838083F301BE
:1039B000EFCFF0935104E093500469CF48165906B5
:1039C00008F42C017D01D3019ACFCB010E94151B75
:1039D0007C01009749F0AE01B8010E94F71CC801B4
:1039E0000E94B11B870153CF10E000E050CFFB01D4
:1039F000DC0102C001900D9241505040D8F708956B
:103A0000FB01DC018D91019080190110D9F3990B14
:103A10000895FB01DC0101900D920020E1F708956B
:103A200010E0CFEBD0E004C0FE010E940F1B2196F6
:0A3A3000C03CD107C9F7F894FFCF9E
:103A3A00000052048000000000008C01EC00190113
:103A4A00F4014A0128013C01000000002603F902A2
:103A5A007006EB02F202EF02EC02000000006D03B6
:103A6A00EC007006EB02C903E103550300000000F5
:103A7A008806EC007006EA000000000007072F2FF6
:103A8A0022225C5C6208660C6E0A720D7409006E72
:103A9A00756C6C00652D00747275650066616C73D7
:103AAA0065004855415745492D4E6E466E006D36A4
:103ABA006E383773416E002F612E70687000706126
:103ACA00756E657363756D696861692E726F0047FB
:103ADA004554200020485454502F312E310D0A00ED
:103AEA00486F73743A00436F6E6E656374696F6EE4
:103AFA003A206B6565702D616C6976650D0A0D0A51
:103B0A000041542B5253540041542B43574D4F44B8
:103B1A00453D310041542B43574A41503D22004113
:103B2A00542B43494653520041542B434950535452
:103B3A004152543D22544350222C2200222C383028
:103B4A000041542B43495053454E443D006664643A
:103B5A006464646464646464646464646464007073
:103B6A006172746974696F6E4B657900726F774B15
:103B7A0065790041542B434950434C4F534500004B
:00000001FF
